{
  "contractName": "Coinflip",
  "abi": [
    {
      "anonymous": false,
      "inputs": [
        {
          "indexed": false,
          "internalType": "string",
          "name": "description",
          "type": "string"
        }
      ],
      "name": "LogNewProvableQuery",
      "type": "event"
    },
    {
      "anonymous": false,
      "inputs": [
        {
          "indexed": true,
          "internalType": "address",
          "name": "player",
          "type": "address"
        },
        {
          "indexed": false,
          "internalType": "bytes32",
          "name": "Id",
          "type": "bytes32"
        },
        {
          "indexed": false,
          "internalType": "uint256",
          "name": "value",
          "type": "uint256"
        },
        {
          "indexed": false,
          "internalType": "bool",
          "name": "result",
          "type": "bool"
        }
      ],
      "name": "bet",
      "type": "event"
    },
    {
      "anonymous": false,
      "inputs": [
        {
          "indexed": false,
          "internalType": "address",
          "name": "onlyowner",
          "type": "address"
        },
        {
          "indexed": false,
          "internalType": "uint256",
          "name": "funding",
          "type": "uint256"
        }
      ],
      "name": "funded",
      "type": "event"
    },
    {
      "anonymous": false,
      "inputs": [
        {
          "indexed": false,
          "internalType": "uint256",
          "name": "randomNumber",
          "type": "uint256"
        }
      ],
      "name": "generatedRandomNumber",
      "type": "event"
    },
    {
      "anonymous": false,
      "inputs": [
        {
          "indexed": true,
          "internalType": "address",
          "name": "player",
          "type": "address"
        },
        {
          "indexed": false,
          "internalType": "bytes32",
          "name": "queryId",
          "type": "bytes32"
        },
        {
          "indexed": false,
          "internalType": "uint256",
          "name": "value",
          "type": "uint256"
        }
      ],
      "name": "placeBet",
      "type": "event"
    },
    {
      "constant": true,
      "inputs": [],
      "name": "ContractBalance",
      "outputs": [
        {
          "internalType": "uint256",
          "name": "",
          "type": "uint256"
        }
      ],
      "payable": false,
      "stateMutability": "view",
      "type": "function"
    },
    {
      "constant": false,
      "inputs": [
        {
          "internalType": "bytes32",
          "name": "_myid",
          "type": "bytes32"
        },
        {
          "internalType": "string",
          "name": "_result",
          "type": "string"
        }
      ],
      "name": "__callback",
      "outputs": [],
      "payable": false,
      "stateMutability": "nonpayable",
      "type": "function"
    },
    {
      "constant": false,
      "inputs": [
        {
          "internalType": "bytes32",
          "name": "_queryId",
          "type": "bytes32"
        },
        {
          "internalType": "string",
          "name": "_result",
          "type": "string"
        },
        {
          "internalType": "bytes",
          "name": "_proof",
          "type": "bytes"
        }
      ],
      "name": "__callback",
      "outputs": [],
      "payable": false,
      "stateMutability": "nonpayable",
      "type": "function"
    },
    {
      "constant": false,
      "inputs": [],
      "name": "flip",
      "outputs": [],
      "payable": true,
      "stateMutability": "payable",
      "type": "function"
    },
    {
      "constant": false,
      "inputs": [],
      "name": "withdrawAll",
      "outputs": [
        {
          "internalType": "uint256",
          "name": "",
          "type": "uint256"
        }
      ],
      "payable": false,
      "stateMutability": "nonpayable",
      "type": "function"
    },
    {
      "constant": true,
      "inputs": [],
      "name": "getBalance",
      "outputs": [
        {
          "internalType": "address",
          "name": "",
          "type": "address"
        },
        {
          "internalType": "uint256",
          "name": "",
          "type": "uint256"
        },
        {
          "internalType": "uint256",
          "name": "",
          "type": "uint256"
        }
      ],
      "payable": false,
      "stateMutability": "view",
      "type": "function"
    },
    {
      "constant": false,
      "inputs": [],
      "name": "fundContract",
      "outputs": [
        {
          "internalType": "uint256",
          "name": "",
          "type": "uint256"
        }
      ],
      "payable": true,
      "stateMutability": "payable",
      "type": "function"
    }
  ],
  "bytecode": "0x608060405234801561001057600080fd5b50611b2e806100206000396000f3fe6080604052600436106100705760003560e01c80633b6680591161004e5780633b66805914610315578063853828b614610340578063bd097e211461036b578063cde4efa91461038957610070565b806312065fe01461007557806327dc297e146100da57806338bbfa50146101ac575b600080fd5b34801561008157600080fd5b5061008a610393565b604051808473ffffffffffffffffffffffffffffffffffffffff1673ffffffffffffffffffffffffffffffffffffffff168152602001838152602001828152602001935050505060405180910390f35b3480156100e657600080fd5b506101aa600480360360408110156100fd57600080fd5b81019080803590602001909291908035906020019064010000000081111561012457600080fd5b82018360208201111561013657600080fd5b8035906020019184600183028401116401000000008311171561015857600080fd5b91908080601f016020809104026020016040519081016040528093929190818152602001838380828437600081840152601f19601f8201169050808301925050505050505091929192905050506103bf565b005b3480156101b857600080fd5b50610313600480360360608110156101cf57600080fd5b8101908080359060200190929190803590602001906401000000008111156101f657600080fd5b82018360208201111561020857600080fd5b8035906020019184600183028401116401000000008311171561022a57600080fd5b91908080601f016020809104026020016040519081016040528093929190818152602001838380828437600081840152601f19601f8201169050808301925050505050505091929192908035906020019064010000000081111561028d57600080fd5b82018360208201111561029f57600080fd5b803590602001918460018302840111640100000000831117156102c157600080fd5b91908080601f016020809104026020016040519081016040528093929190818152602001838380828437600081840152601f19601f820116905080830192505050505050509192919290505050610402565b005b34801561032157600080fd5b5061032a6107a3565b6040518082815260200191505060405180910390f35b34801561034c57600080fd5b506103556107a9565b6040518082815260200191505060405180910390f35b610373610847565b6040518082815260200191505060405180910390f35b6103916108c7565b005b6000806000303073ffffffffffffffffffffffffffffffffffffffff1631600554925092509250909192565b6103fe828260006040519080825280601f01601f1916602001820160405280156103f85781602001600182028038833980820191505090505b50610402565b5050565b600760009054906101000a900473ffffffffffffffffffffffffffffffffffffffff1673ffffffffffffffffffffffffffffffffffffffff163373ffffffffffffffffffffffffffffffffffffffff161461045c57600080fd5b6000610469848484610b13565b60ff16146104765761079e565b60006002836040516020018082805190602001908083835b602083106104b1578051825260208201915060208101905060208303925061048e565b6001836020036101000a0380198251168184511680821785525050505050509050019150506040516020818303038152906040528051906020012060001c816104f657fe5b06905060008114156105365760016008600086815260200190815260200160002060020160006101000a81548160ff021916908315150217905550610606565b60018114156106055760006008600086815260200190815260200160002060020160006101000a81548160ff0219169083151502179055506008600085815260200190815260200160002060000160009054906101000a900473ffffffffffffffffffffffffffffffffffffffff1673ffffffffffffffffffffffffffffffffffffffff166108fc60026008600088815260200190815260200160002060010154029081150290604051600060405180830381858888f19350505050158015610603573d6000803e3d6000fd5b505b5b6000600960006008600088815260200190815260200160002060000160009054906101000a900473ffffffffffffffffffffffffffffffffffffffff1673ffffffffffffffffffffffffffffffffffffffff1673ffffffffffffffffffffffffffffffffffffffff16815260200190815260200160002060006101000a81548160ff0219169083151502179055507fc13d60fe9dffdb6908d2d446cd18134373a51db0738ee04f296eeb9128121cbc816040518082815260200191505060405180910390a16008600085815260200190815260200160002060000160009054906101000a900473ffffffffffffffffffffffffffffffffffffffff1673ffffffffffffffffffffffffffffffffffffffff167f58c89688f9de07ab01e6218e0fcbbe35d065af21bff5831eea91bec89bcbfca08560086000888152602001908152602001600020600101546008600089815260200190815260200160002060020160009054906101000a900460ff166040518084815260200183815260200182151515158152602001935050505060405180910390a2505b505050565b60055481565b60003373ffffffffffffffffffffffffffffffffffffffff166108fc3073ffffffffffffffffffffffffffffffffffffffff16319081150290604051600060405180830381858888f19350505050158015610808573d6000803e3d6000fd5b5060003073ffffffffffffffffffffffffffffffffffffffff16311461082a57fe5b3073ffffffffffffffffffffffffffffffffffffffff1631905090565b60008034141561085657600080fd5b7fed7d0ddcc17abdb3935a0a23cd93e91b449dfeac7fd0def9f481ed5b37e18c4d3334604051808373ffffffffffffffffffffffffffffffffffffffff1673ffffffffffffffffffffffffffffffffffffffff1681526020018281526020019250505060405180910390a134905090565b670de0b6b3a764000080341015610946576040517f08c379a000000000000000000000000000000000000000000000000000000000815260040180806020018281038252601a8152602001807f546865206d696e696d756d20626574206973203120457468657200000000000081525060200191505060405180910390fd5b60001515600960003373ffffffffffffffffffffffffffffffffffffffff1673ffffffffffffffffffffffffffffffffffffffff16815260200190815260200160002060009054906101000a900460ff161515146109a357600080fd5b6001600960003373ffffffffffffffffffffffffffffffffffffffff1673ffffffffffffffffffffffffffffffffffffffff16815260200190815260200160002060006101000a81548160ff02191690831515021790555060405180606001604052803373ffffffffffffffffffffffffffffffffffffffff1681526020013481526020016000151581525060086000600654815260200190815260200160002060008201518160000160006101000a81548173ffffffffffffffffffffffffffffffffffffffff021916908373ffffffffffffffffffffffffffffffffffffffff1602179055506020820151816001015560408201518160020160006101000a81548160ff0219169083151502179055509050503373ffffffffffffffffffffffffffffffffffffffff167f3037d5c0b46a4854a4f84a9c0e23aa82a5e92d731cc36914525ff33a9ad67dda60065434604051808381526020018281526020019250505060405180910390a250565b60007f4c0000000000000000000000000000000000000000000000000000000000000082600081518110610b4357fe5b602001015160f81c60f81b7effffffffffffffffffffffffffffffffffffffffffffffffffffffffffffff1916141580610bd657507f500000000000000000000000000000000000000000000000000000000000000082600181518110610ba657fe5b602001015160f81c60f81b7effffffffffffffffffffffffffffffffffffffffffffffffffffffffffffff191614155b80610c025750600160ff1682600281518110610bee57fe5b602001015160f81c60f81b60f81c60ff1614155b15610c105760019050610c3c565b6000610c25838686610c20610c43565b610ce5565b905080610c36576002915050610c3c565b60009150505b9392505050565b606060028054600181600116156101000203166002900480601f016020809104026020016040519081016040528092919081815260200182805460018160011615610100020316600290048015610cdb5780601f10610cb057610100808354040283529160200191610cdb565b820191906000526020600020905b815481529060010190602001808311610cbe57829003601f168201915b5050505050905090565b6000806020600287604581518110610cf957fe5b602001015160f81c60f81b60f81c60ff1601604401019050606060206040519080825280601f01601f191660200182016040528015610d475781602001600182028038833980820191505090505b509050610d5987836020846000611390565b50600284876040516020018083805190602001908083835b60208310610d945780518252602082019150602081019050602083039250610d71565b6001836020036101000a038019825116818451168082178552505050505050905001828152602001925050506040516020818303038152906040526040518082805190602001908083835b60208310610e025780518252602082019150602081019050602083039250610ddf565b6001836020036101000a038019825116818451168082178552505050505050905001915050602060405180830381855afa158015610e44573d6000803e3d6000fd5b5050506040513d6020811015610e5957600080fd5b81019080805190602001909291905050506040516020018082815260200191505060405160208183030381529060405280519060200120818051906020012014610ea857600092505050611388565b60606002886001604986010181518110610ebe57fe5b602001015160f81c60f81b60f81c60ff16016040519080825280601f01601f191660200182016040528015610f025781602001600182028038833980820191505090505b509050610f1788604985018351846000611390565b50610fe26002826040518082805190602001908083835b60208310610f515780518252602082019150602081019050602083039250610f2e565b6001836020036101000a038019825116818451168082178552505050505050905001915050602060405180830381855afa158015610f93573d6000803e3d6000fd5b5050506040513d6020811015610fa857600080fd5b8101908080519060200190929190505050878a6008602088010181518110610fcc57fe5b602001015160f81c60f81b60f81c60ff166113ef565b610ff25760009350505050611388565b606060296040519080825280601f01601f1916602001820160405280156110285781602001600182028038833980820191505090505b50905061103d89602086016029846000611390565b506060604080519080825280601f01601f1916602001820160405280156110735781602001600182028038833980820191505090505b50905060006041845160296020890101010190506110998b604083036040856000611390565b5060006002836040518082805190602001908083835b602083106110d257805182526020820191506020810190506020830392506110af565b6001836020036101000a038019825116818451168082178552505050505050905001915050602060405180830381855afa158015611114573d6000803e3d6000fd5b5050506040513d602081101561112957600080fd5b8101908080519060200190929190505050905083816040516020018083805190602001908083835b602083106111745780518252602082019150602081019050602083039250611151565b6001836020036101000a0380198251168184511680821785525050505050509050018281526020019250505060405160208183030381529060405280519060200120600360008d81526020019081526020016000205414156111ec57600360008c8152602001908152602001600020600090556111fc565b6000975050505050505050611388565b606060496040519080825280601f01601f1916602001820160405280156112325781602001600182028038833980820191505090505b5090506112448d896049846000611390565b506112ed6002826040518082805190602001908083835b6020831061127e578051825260208201915060208101905060208303925061125b565b6001836020036101000a038019825116818451168082178552505050505050905001915050602060405180830381855afa1580156112c0573d6000803e3d6000fd5b5050506040513d60208110156112d557600080fd5b8101908080519060200190929190505050878661149f565b61130257600098505050505050505050611388565b6004600083815260200190815260200160002060009054906101000a900460ff1661135c576113318d8461165d565b6004600084815260200190815260200160002060006101000a81548160ff0219169083151502179055505b6004600083815260200190815260200160002060009054906101000a900460ff16985050505050505050505b949350505050565b60606000828501905080845110156113a757600080fd5b600086602001905060008460200190505b8688602001018210156113e057818901518082880152506020820191506020810190506113b8565b85935050505095945050505050565b600080600190508284511461140357600080fd5b60008090505b838110156114935784818151811061141d57fe5b602001015160f81c60f81b7effffffffffffffffffffffffffffffffffffffffffffffffffffffffffffff191686826020811061145657fe5b1a60f81b7effffffffffffffffffffffffffffffffffffffffffffffffffffffffffffff19161461148657600091505b8080600101915050611409565b50809150509392505050565b6000806000806000606060206040519080825280601f01601f1916602001820160405280156114dd5781602001600182028038833980820191505090505b50905060006020896003815181106114f157fe5b602001015160f81c60f81b60f81c60ff1603600401905061151789826020856000611390565b9150606060206040519080825280601f01601f19166020018201604052801561154f5781602001600182028038833980820191505090505b50905060228201915061158b8a60208c600186038151811061156d57fe5b602001015160f81c60f81b60f81c60ff160384016020846000611390565b905060208301519450602081015193506115a88b601b8787611a75565b80975081985050508573ffffffffffffffffffffffffffffffffffffffff16898051906020012060001c73ffffffffffffffffffffffffffffffffffffffff1614156115fe576001975050505050505050611656565b61160b8b601c8787611a75565b80975081985050508573ffffffffffffffffffffffffffffffffffffffff16898051906020012060001c73ffffffffffffffffffffffffffffffffffffffff16149750505050505050505b9392505050565b6000806060600285600186018151811061167357fe5b602001015160f81c60f81b60f81c60ff16016040519080825280601f01601f1916602001820160405280156116b75781602001600182028038833980820191505090505b5090506116c985858351846000611390565b506060604080519080825280601f01601f1916602001820160405280156116ff5781602001600182028038833980820191505090505b5090506117128660046040846000611390565b50606060626040519080825280601f01601f1916602001820160405280156117495781602001600182028038833980820191505090505b509050600160f81b8160008151811061175e57fe5b60200101907effffffffffffffffffffffffffffffffffffffffffffffffffffffffffffff1916908160001a90535061179f87604188036041846001611390565b5060606040518060400160405280602081526020017ffd94fa71bc0ba10d39d464d0d8f465efeef0a2764e3887fcc9df41ded20f505c81525090506117ea8160006020856042611390565b506118936002836040518082805190602001908083835b602083106118245780518252602082019150602081019050602083039250611801565b6001836020036101000a038019825116818451168082178552505050505050905001915050602060405180830381855afa158015611866573d6000803e3d6000fd5b5050506040513d602081101561187b57600080fd5b8101908080519060200190929190505050858561149f565b9450846118a857600095505050505050611a6f565b6060604051806060016040528060408152602001611aba604091399050606060426040519080825280601f01601f1916602001820160405280156118fb5781602001600182028038833980820191505090505b50905060fe60f81b8160008151811061191057fe5b60200101907effffffffffffffffffffffffffffffffffffffffffffffffffffffffffffff1916908160001a90535061194f8a60036041846001611390565b50606060028b60458151811061196157fe5b602001015160f81c60f81b60f81c60ff16016040519080825280601f01601f1916602001820160405280156119a55781602001600182028038833980820191505090505b5090506119b88b60448351846000611390565b50611a616002836040518082805190602001908083835b602083106119f257805182526020820191506020810190506020830392506119cf565b6001836020036101000a038019825116818451168082178552505050505050905001915050602060405180830381855afa158015611a34573d6000803e3d6000fd5b5050506040513d6020811015611a4957600080fd5b8101908080519060200190929190505050828561149f565b975087985050505050505050505b92915050565b60008060008060405188815287602082015286604082015285606082015260208160808360006001610bb8f19250805191505081819350935050509450949250505056fe7fb956469c5c9b89840d55b43537e66a98dd4811ea0a27224272c2e5622911e8537a2f8e86a46baec82864e98dd01e9ccc2f8bc5dfc9cbe5a91a290498dd96e4a265627a7a72315820c1cf1d8ed9868f243be1e76b63169f11df6894c4eaf1f98cb57fc17b15891e0064736f6c634300050c0032",
  "source": "import \"./provableAPI.sol\";\n//import \"./ownable.sol\";\npragma solidity 0.5.12;\n\ncontract Coinflip is usingProvable {\n\n    uint public ContractBalance;\n\n    bytes32 queryId;\n    address onlyowner;\n\n    struct Bet {\n        address payable player;\n        uint value;\n        bool result;\n\n    }\n\n\n    event placeBet(address indexed player,bytes32 queryId, uint value);\n    event bet(address indexed player, bytes32 Id, uint value, bool result);\n    event funded(address onlyowner, uint funding);\n    event LogNewProvableQuery(string description);\n    event generatedRandomNumber(uint256 randomNumber);\n\n    mapping (bytes32 => Bet)  betting;\n    mapping (address => bool) waiting;\n\n     /*constructor() public {\n        provable_setProof(proofType_Ledger);\n\n    }_*/\n\n\n    modifier costs(uint cost){\n        require(msg.value >= cost, \"The minimum bet is 1 Ether\");\n        _;\n    }\n\n  function __callback(bytes32 _queryId, string memory _result, bytes memory _proof) public {\n    require(msg.sender == address(onlyowner));\n\n    if (provable_randomDS_proofVerify__returnCode(_queryId, _result, _proof) != 0)\n    {\n\n    }\n      else\n      {\n\n        uint256 randomNumber = uint256(keccak256(abi.encodePacked(_result))) % 2;\n\n        if(randomNumber == 0){\n            betting[_queryId].result = true;\n        }\n        else if(randomNumber == 1){\n            betting[_queryId].result = false;\n            betting[_queryId].player.transfer((betting[_queryId].value)*2);\n        }\n\n        waiting[betting[_queryId].player] = false;\n\n        emit generatedRandomNumber(randomNumber);\n        emit bet(betting[_queryId].player, _queryId, betting[_queryId].value, betting[_queryId].result);\n       }\n    }\n\n\n    /*function flip() public payable costs(0.01 ether) returns(bool){\n        require(address(this).balance >= msg.value, \"The contract hasn't enought funds\");\n        bool success;\n        if(now % 2 == 0){\n            ContractBalance += msg.value;\n            success = false;\n        }\n        else if(now % 2 == 1){\n            ContractBalance -= msg.value;\n            msg.sender.transfer(msg.value * 2);\n            success = true;\n        }\n        //assert(ContractBalance == address(this).balance);\n        emit placeBet(msg.sender, queryId, msg.value);\n        return success;\n    }*/\n\n\n    function flip() public payable costs(1 ether){\n\n        require(waiting[msg.sender] == false);\n\n        waiting[msg.sender] = true;\n\n\n\n\n        betting[queryId] = Bet({player: msg.sender, value: msg.value, result: false});\n\n\n        emit placeBet(msg.sender, queryId, msg.value);\n\n\n    }\n\n\n\n\n\n\n    function withdrawAll() public  returns(uint){\n        msg.sender.transfer(address(this).balance);\n        assert(address(this).balance == 0);\n        return address(this).balance;\n    }\n    function getBalance() public view returns (address, uint, uint) {\n        return (address(this), address(this).balance, ContractBalance);\n    }\n    // Fund the Contract\n    function fundContract() public payable  returns(uint){\n        require(msg.value != 0);\n        //ContractBalance += msg.value;\n        emit funded(msg.sender, msg.value);\n        //assert(ContractBalance == address(this).balance);\n        return msg.value;\n    }\n\n}\n",
  "sourcePath": "/home/mucha/coinflip/contracts/flip.sol",
  "compiler": {
    "name": "solc",
    "version": "0.5.12+commit.7709ece9.Emscripten.clang"
  },
  "schemaVersion": "3.0.16",
  "updatedAt": "2020-11-01T11:55:27.408Z",
  "devdoc": {
    "methods": {
      "__callback(bytes32,string)": {
        "details": "The following `__callback` functions are just placeholders ideally     meant to be defined in child contract when proofs are used.     The function bodies simply silence compiler warnings."
      }
    }
  },
  "userdoc": {
    "methods": {}
  }
}